:100000000C942A000C9434000C9434000C943400AA
:100010000C9434000C9434000C9434000C94340090
:100020000C9434000C9434000C9434000C94340080
:100030000C9434000C9434000C9434000C94340070
:100040000C9434000C9434000C9434000C94340060
:100050000C94340011241FBECFE5D4E0DEBFCDBF29
:100060000E9428010C9465010C9400009C01207FE3
:1000700033272C5F28BBE9EFF0E03197F1F700C0A0
:10008000000098B3945098BB8295807F8C5F88BBAA
:1000900089EF90E00197F1F700C0000088B3845029
:1000A00088BB08959C01207F33272B5F28BBE9EF95
:1000B000F0E03197F1F700C0000028B3245028BBCE
:1000C00082959295907F9827807F98278B5F88BB39
:1000D00089EF90E00197F1F700C0000088B38450E9
:1000E00088BB089580E690E00E94360084E090E0AE
:1000F0000E9452008EE090E00E94520081E190E068
:100100000E94520081E190E00E94520081E190E063
:100110000E9452008FE190E00E94520082E090E045
:100120000E945200089588E590E00E94360084E025
:1001300090E00E9452008EE090E00E94520081E127
:1001400090E00E94520081E190E00E94520081E123
:1001500090E00E9452008FE190E00E94520084E003
:1001600090E00E945200089580E590E00E943600E1
:1001700084E090E00E9452008EE090E00E945200E5
:1001800081E190E00E94520081E190E00E945200E3
:1001900081E190E00E9452008FE190E00E945200C5
:1001A00088E090E00E945200089588E490E00E9468
:1001B00036008EE190E00E94520082E190E00E94C1
:1001C000520082E090E00E94520087E090E00E949E
:1001D000520083E190E00E9452008BE090E00E9488
:1001E00052008FE090E00E945200089580E490E079
:1001F0000E94360087E190E00E94520084E190E086
:100200000E94520084E190E00E9452008FE190E051
:100210000E94520085E090E00E94520085E090E04C
:100220000E9452008DE190E00E945200089582E009
:1002300090E00E94360088E290E00E9436008CE058
:1002400090E00E94360086E090E00E94360008951B
:100250008FEF87BB0E9417010E94F6000E94D50015
:100260000E94B4000E9493000E94720084E890E013
:100270000E94360082E090E00E94520089EF90E0F8
:100280000197F1F700C0000084E890E00E9436007A
:1002900083E090E00E94520089EF90E00197F1F72F
:1002A00000C0000096EA9A95F1F700C084E890E05B
:1002B0000E94360084E090E00E94520089EF90E0B6
:0E02C0000197F1F700C00000D1CFF894FFCFF6
:00000001FF
